:100000000C942A000C9434000C9434000C943400AA
:100010000C9434000C9434000C9434000C94340090
:100020000C9434000C9434000C9434000C94340080
:100030000C9434000C9434000C9434000C94340070
:100040000C9434000C9434000C9434000C94340060
:100050000C94340011241FBECFE5D8E0DEBFCDBF25
:100060000E946C000C94AD000C94000082E08BB9EF
:1000700088E18AB986E880BD10BC8CE089B9089512
:100080005F9BFECF8CB10895EF92FF920F931F9369
:10009000CF938C010E944000F8018083C0E008C02B
:1000A000CF5F7801EC0EF11C0E944000F7018083C5
:1000B0008C2F90E0F801E80FF91F20812D3081F797
:1000C00020830196F801E80FF91F1082CF911F914C
:1000D0000F91FF90EF900895CF93DF93CDB7DEB7E8
:1000E000C456D1090FB6F894DEBF0FBECDBF0E9433
:1000F00036000E948400CE0101960E944400CE0189
:1001000001960E949000F7CF87B380638F7B806851
:1001100087BB80E58DB908958FB9779BFECF089591
:100120000F931F93CF938C01C0E003C00E948C00FB
:10013000CF5F2C2F30E0F801E20FF31F8081811197
:10014000F5CF8DE080832F5F3F4FF801E20FF31F63
:0E0150001082CF911F910F910895F894FFCF68
:00000001FF
