S010000055534152545F76312E737265637F
S11300000C942A000C943F000C943F000C943F0085
S11300100C943F000C943F000C943F000C943F0060
S11300200C943F000C943F000C943F000C943F0050
S11300300C943F000C943F000C943F000C943F0040
S11300400C943F000C943F000C943F000C943F0030
S11300500C943F0011241FBECFE5D8E0DEBFCDBF16
S113006010E0A0E6B0E0E2E0F5E002C005900D92F9
S1130070A23EB107D9F70E942E010C947F020C9482
S113008000000F931F93CF93DF93CDB7DEB7CC5807
S1130090D1090FB6F894DEBF0FBECDBF8C0188E244
S11300A0E0E6F0E0DE01119601900D928A95E1F709
S11300B08EE0E8E8F0E0DE01999601900D928A95D1
S11300C0E1F7FE01F79680E1DF011D928A95E9F7D9
S11300D08FE0E6EAF0E0DE01A95BBF4F01900D92EC
S11300E08A95E1F7E7E4F0E0EC0FFD1F3F968FE01F
S11300F0DF011D928A95E9F78CE0E4ECF0E0DE0183
S1130100AB59BF4F01900D928A95E1F7E5E6F0E017
S1130110EC0FFD1F3C9682E1DF011D928A95E9F701
S11301208FE49BE4CD57DF4F99838883C358D04035
S11301308DE090E0CB57DF4F99838883C558D0403A
S1130140E3E8F0E0EC0FFD1F349686E0DF011D923A
S11301508A95E9F770E0AFEF28C0492F50E0F80125
S1130160E40FF51F6081272F30E0F901EE0FFF1F28
S1130170220F331F220F331F220F331F2E0F3F1F57
S1130180E1E0F0E0EC0FFD1F2E0F3F1FF901E40F3B
S1130190F51F8081681308C0611101C0A72F9F5FFC
S11301A001C090E09A30C8F27F5F7430D0F3A1119F
S11301B014C041E062E080E00E94C90140E061E0D7
S11301C080E00E94C90140E060E080E00E94C90133
S11301D0CE0189960E944B0235C0A130A9F440E0BB
S11301E062E080E00E94C90141E061E080E00E9499
S11301F0C90140E060E080E00E94C901CE01895B52
S11302009F4F0E944B021EC0A230A9F440E062E05E
S113021080E00E94C90140E061E080E00E94C901E1
S113022041E060E080E00E94C901CE018B599F4FFC
S11302300E944B0207C0A33029F4CE018D579F4F73
S11302400E944B02C457DF4F0FB6F894DEBF0FBEB7
S1130250CDBFDF91CF911F910F910895CF93DF937D
S1130260CDB7DEB76E970FB6F894DEBF0FBECDBF25
S1130270FE0131968EE1DF011D928A95E9F741E096
S113028060E080E00E94590141E061E080E00E946A
S1130290590141E062E080E00E9459010E94390264
S11302A0CE0101960E945E02CE0101960E94410099
S11302B0F7CF4130A1F5813089F028F08230C9F0C0
S11302C0833011F1089581E090E002C0880F991FF6
S11302D06A95E2F79AB3892B8ABB089581E090E08E
S11302E002C0880F991F6A95E2F797B3892B87BBE1
S11302F0089581E090E002C0880F991F6A95E2F7A3
S113030094B3892B84BB089581E090E002C0880FE8
S1130310991F6A95E2F791B3892B81BB0895411126
S113032037C0813091F028F08230D9F0833029F140
S1130330089581E090E002C0880F991F6A95E2F762
S113034080959AB389238ABB089581E090E002C026
S1130350880F991F6A95E2F7809597B3892387BB25
S1130360089581E090E002C0880F991F6A95E2F732
S1130370809594B3892384BB089581E090E002C002
S1130380880F991F6A95E2F7809591B3892381BB01
S113039008954130A1F5813089F028F08230C9F008
S11303A0833011F1089581E090E002C0880F991F15
S11303B06A95E2F79BB3892B8BBB089581E090E0AB
S11303C002C0880F991F6A95E2F798B3892B88BBFE
S11303D0089581E090E002C0880F991F6A95E2F7C2
S11303E095B3892B85BB089581E090E002C0880F06
S11303F0991F6A95E2F792B3892B82BB0895411144
S113040037C0813091F028F08230D9F0833029F15F
S1130410089581E090E002C0880F991F6A95E2F781
S113042080959BB389238BBB089581E090E002C043
S1130430880F991F6A95E2F7809598B3892388BB42
S1130440089581E090E002C0880F991F6A95E2F751
S1130450809595B3892385BB089581E090E002C01F
S1130460880F991F6A95E2F7809592B3892382BB1E
S1130470089582E08BB988E18AB986E880BD10BC12
S11304808CE089B908955D9BFECF8CB908955F9B7C
S1130490FECF8CB108950F931F93CF938C01C0E0CE
S11304A003C00E944302CF5FF801EC0FF11D80816D
S11304B08111F7CFCF911F910F910895EF92FF9281
S11304C00F931F93CF938C010E944702F8018083FE
S11304D0C0E008C0CF5F7801EC0EF11C0E94470217
S11304E0F7018083F801EC0FF11D80818D3091F7C5
S11304F01082CF911F910F91FF90EF900895F8947F
S1050500FFCF27
S11305027374617274000000000077616974000002
S11305120000000073746F7000000000000061743A
S11305220000000000000000477265656E204C4523
S113053244204F4E0D0000000000000000000000A7
S113054200000000000059656C6C6F77204C454434
S1130552204F4E0D000000000000000000000000CB
S113056200000000526564204C4544204F4E0D00AB
S11305720000000000000000000000000000000075
S1050582000073
S9030000FC
