:100000000C942A000C9434000C9434000C943400AA
:100010000C9434000C9434000C9434000C94340090
:100020000C9434000C9434000C9434000C94340080
:100030000C9434000C9434000C9434000C94340070
:100040000C9434000C9434000C9434000C94340060
:100050000C94340011241FBECFE5D8E0DEBFCDBF25
:100060000E9449010C94ED030C940000CF93C82F1B
:1000700041E062E083E00E94100240E061E083E042
:100080000E9410026C2F82E00E94900241E060E02A
:1000900083E00E94100289EF90E00197F1F700C021
:1000A000000040E060E083E00E94100289EF90E0F1
:1000B0000197F1F700C00000CF910895CF93C82FAA
:1000C00040E062E083E00E94100240E061E083E0F3
:1000D0000E9410026C2F82E00E94900241E060E0DA
:1000E00083E00E94100289EF90E00197F1F700C0D1
:1000F000000040E060E083E00E94100289EF90E0A1
:100100000197F1F700C00000CF9108956FEF82E0F2
:100110000E9480026FEF83E00E94800283ED90E3F3
:100120000197F1F700C0000088E30E945E0089EFAC
:1001300090E00197F1F700C000008CE00E945E00A3
:1001400089EF90E00197F1F700C0000081E00E9484
:100150005E0083EF91E00197F1F700C00000089581
:100160000F931F93CF93DF938C010097F1F49C01C1
:10017000ADECBCEC0E94DE0396958795969587952D
:10018000969587959C01220F331F880F991F880F22
:10019000991F880F991F820F931F9801281B390BF5
:1001A000C901805D0E9436003FC0992334F4119547
:1001B000019511098DE20E943600C0E1D7E232C0FC
:1001C000802F912F0C171D0708F1BE010E94CA0352
:1001D000AB019B01ADECBCEC0E94DE0396958795CC
:1001E00096958795969587959C01220F331F880FCA
:1001F000991F880F991F880F991F820F931F9A01CB
:10020000281B390BC901805D0E9436009E01ADECB0
:10021000BCEC0E94DE03EC01D695C795D695C79538
:10022000D695C795209761F6DF91CF911F910F91D9
:10023000089540E060E080E00E94A0010E947C01FF
:1002400008950F931F93CF93DF9300D0CDB7DEB700
:100250008C0180E090E00E947301CE0101960E9423
:10026000920169817A8180E090E00E94CF0220E0D3
:1002700030E040E85EE30E9435030E94A002F801EE
:10028000718360830F900F90DF91CF911F910F9139
:100290000895CF93DF9300D000D0CDB7DEB7198299
:1002A0001A821B821C820E9419010E948600C12CA6
:1002B000D12C7601CE0101960E94210189819A817B
:1002C000AB81BC81C816D906EA06FB0699F381E02A
:1002D0000E945E0089819A810E94B000C980DA8004
:1002E000EB80FC80E7CF97B1907E97B9803218F40D
:1002F00097B1892B87B9089587B1806487B987B191
:10030000806887B987B18F7D87B986B18E7F86B9BE
:1003100086B1826086B986B1846086B986B180680C
:1003200086B90895FC0196B1906496B9349BFECFCE
:1003300096B1906196B984B195B191838083089507
:100340004130A1F5813089F028F08230C9F0833046
:1003500011F1089581E090E002C0880F991F6A951D
:10036000E2F79AB3892B8ABB089581E090E002C03E
:10037000880F991F6A95E2F797B3892B87BB089579
:1003800081E090E002C0880F991F6A95E2F794B36C
:10039000892B84BB089581E090E002C0880F991FEB
:1003A0006A95E2F791B3892B81BB0895411137C05B
:1003B000813091F028F08230D9F0833029F108950E
:1003C00081E090E002C0880F991F6A95E2F780955E
:1003D0009AB389238ABB089581E090E002C0880F18
:1003E000991F6A95E2F7809597B3892387BB089593
:1003F00081E090E002C0880F991F6A95E2F780952E
:1004000094B3892384BB089581E090E002C0880FF3
:10041000991F6A95E2F7809591B3892381BB08956E
:100420004130A1F5813089F028F08230C9F0833065
:1004300011F1089581E090E002C0880F991F6A953C
:10044000E2F79BB3892B8BBB089581E090E002C05B
:10045000880F991F6A95E2F798B3892B88BB089596
:1004600081E090E002C0880F991F6A95E2F795B38A
:10047000892B85BB089581E090E002C0880F991F09
:100480006A95E2F792B3892B82BB0895411137C078
:10049000813091F028F08230D9F0833029F108952D
:1004A00081E090E002C0880F991F6A95E2F780957D
:1004B0009BB389238BBB089581E090E002C0880F35
:1004C000991F6A95E2F7809598B3892388BB0895B0
:1004D00081E090E002C0880F991F6A95E2F780954D
:1004E00095B3892385BB089581E090E002C0880F11
:1004F000991F6A95E2F7809592B3892382BB08958C
:10050000813041F028F0823039F0833039F008959D
:100510006ABB089567BB089564BB089561BB0895E5
:10052000813041F028F0823039F0833039F008957D
:100530006BBB089568BB089565BB089562BB0895C1
:100540000E94140388F09F5798F0B92F9927B7514C
:10055000B0F0E1F0660F771F881F991F1AF0BA9567
:10056000C9F714C0B13091F00E942E03B1E0089594
:100570000C942E03672F782F8827B85F39F0B93F86
:10058000CCF3869577956795B395D9F73EF490951A
:100590008095709561957F4F8F4F9F4F0895E89498
:1005A00009C097FB3EF490958095709561957F4FBB
:1005B0008F4F9F4F9923A9F0F92F96E9BB27939569
:1005C000F695879577956795B795F111F8CFFAF479
:1005D000BB0F11F460FF1BC06F5F7F4F8F4F9F4FAA
:1005E00016C0882311F096E911C0772321F09EE808
:1005F000872F762F05C0662371F096E8862F70E06E
:1006000060E02AF09A95660F771F881FDAF7880F47
:100610009695879597F9089557FD9058440F551F63
:1006200059F05F3F71F04795880F97FB991F61F074
:100630009F3F79F087950895121613061406551FEB
:10064000F2CF4695F1DF08C0161617061806991F57
:10065000F1CF86957105610508940895E894BB274C
:1006600066277727CB0197F908950E9448030C94D9
:10067000B9030E94AB0338F00E94B20320F0952327
:1006800011F00C94A2030C94A80311240C942F03D2
:100690000E940C0370F3959FC1F3950F50E0551F16
:1006A000629FF001729FBB27F00DB11D639FAA27C7
:1006B000F00DB11DAA1F649F6627B00DA11D661F16
:1006C000829F2227B00DA11D621F739FB00DA11D37
:1006D000621F839FA00D611D221F749F3327A00DF1
:1006E000611D231F849F600D211D822F762F6A2F8D
:1006F00011249F5750409AF0F1F088234AF0EE0FF2
:10070000FF1FBB1F661F771F881F91505040A9F71E
:100710009E3F510580F00C94A2030C942F035F3F81
:10072000E4F3983ED4F3869577956795B795F7955A
:10073000E7959F5FC1F7FE2B880F911D96958795D2
:1007400097F9089597F99F6780E870E060E0089551
:100750009FEF80EC089500240A94161617061806D9
:100760000906089500240A941216130614060506B5
:100770000895092E0394000C11F4882352F0BB0F46
:1007800040F4BF2B11F460FF04C06F5F7F4F8F4FA9
:100790009F4F0895AA1BBB1B51E107C0AA1FBB1F97
:1007A000A617B70710F0A61BB70B881F991F5A95FD
:1007B000A9F780959095BC01CD010895A29FB00145
:1007C000B39FC001A39F700D811D1124911DB29F85
:0E07D000700D811D1124911D0895F894FFCF26
:00000001FF
