S00E00005350495F76312E7372656324
S11300000C942A000C9434000C9434000C943400A6
S11300100C9434000C9434000C9434000C9434008C
S11300200C9434000C9434000C9434000C9434007C
S11300300C9434000C9434000C9434000C9434006C
S11300400C9434000C9434000C9434000C9434005C
S11300500C94340011241FBECFE5D8E0DEBFCDBF21
S11300600E9436000C946F000C9400000E94630000
S11300706FEF82E00E9443000E946B00682F82E0D1
S11300800E945300F9CF813041F028F0823039F0DA
S1130090833039F008956ABB089567BB089564BB43
S11300A0089561BB0895813041F028F0823039F021
S11300B0833039F008956BBB089568BB089565BB20
S11300C0089562BB089587B38F7C80648F7787BB64
S11300D080E48DB90895779BFECF8FB10895F8948D
S10500E0FFCF4C
S9030000FC
