S00F00004156525F44494F2E73726563F1
S11300000C942A000C9434000C9434000C943400A6
S11300100C9434000C9434000C9434000C9434008C
S11300200C9434000C9434000C9434000C9434007C
S11300300C9434000C9434000C9434000C9434006C
S11300400C9434000C9434000C9434000C9434005C
S11300500C94340011241FBECFE5D8E0DEBFCDBF21
S11300600E9416010C9421010C940000411138C027
S1130070813091F028F08230D9F0833029F108954D
S11300802BB381E090E002C0880F991F6A95E2F7D4
S1130090809582238BBB089528B381E090E002C051
S11300A0880F991F6A95E2F78095822388BB08958B
S11300B025B381E090E002C0880F991F6A95E2F7AA
S11300C08095822385BB089522B381E090E002C02D
S11300D0880F991F6A95E2F78095822382BB089561
S11300E0413099F5813089F028F08230C9F08330AD
S11300F011F108952BB381E090E002C0880F991F9D
S11301006A95E2F7822B8BBB089528B381E090E0D7
S113011002C0880F991F6A95E2F7822B88BB089565
S113012025B381E090E002C0880F991F6A95E2F739
S1130130822B85BB089522B381E090E002C0880F32
S1130140991F6A95E2F7822B82BB0895411138C04A
S1130150813091F028F08230D9F0833029F108956C
S11301602AB381E090E002C0880F991F6A95E2F7F4
S1130170809582238ABB089527B381E090E002C072
S1130180880F991F6A95E2F78095822387BB0895AB
S113019024B381E090E002C0880F991F6A95E2F7CA
S11301A08095822384BB089521B381E090E002C04E
S11301B0880F991F6A95E2F78095822381BB089581
S11301C0413099F5813089F028F08230C9F08330CC
S11301D011F108952AB381E090E002C0880F991FBD
S11301E06A95E2F7822B8ABB089527B381E090E0F9
S11301F002C0880F991F6A95E2F7822B87BB089586
S113020024B381E090E002C0880F991F6A95E2F759
S1130210822B84BB089521B381E090E002C0880F53
S1130220991F6A95E2F7822B81BB089541E060E053
S113023080E00E94A60041E060E080E00E94360079
S1090240FFCFF894FFCF8C
S9030000FC
