:100000000C942A000C9434000C9434000C943400AA
:100010000C9434000C9434000C9434000C94340090
:100020000C9434000C9434000C9434000C94340080
:100030000C9434000C9434000C9434000C94340070
:100040000C9434000C9434000C9434000C94340060
:100050000C94340011241FBECFE5D8E0DEBFCDBF25
:100060000E9436000C9421010C94000041E060E0F5
:1000700080E00E94410041E060E080E00E94B10029
:10008000FFCF4130A1F5813089F028F08230C9F0EE
:10009000833011F1089581E090E002C0880F991F2C
:1000A0006A95E2F79AB3892B8ABB089581E090E0C4
:1000B00002C0880F991F6A95E2F797B3892B87BB17
:1000C000089581E090E002C0880F991F6A95E2F7D9
:1000D00094B3892B84BB089581E090E002C0880F1F
:1000E000991F6A95E2F791B3892B81BB089541115D
:1000F00037C0813091F028F08230D9F0833029F177
:10010000089581E090E002C0880F991F6A95E2F798
:1001100080959AB389238ABB089581E090E002C05C
:10012000880F991F6A95E2F7809597B3892387BB5B
:10013000089581E090E002C0880F991F6A95E2F768
:10014000809594B3892384BB089581E090E002C038
:10015000880F991F6A95E2F7809591B3892381BB37
:1001600008954130A1F5813089F028F08230C9F03E
:10017000833011F1089581E090E002C0880F991F4B
:100180006A95E2F79BB3892B8BBB089581E090E0E1
:1001900002C0880F991F6A95E2F798B3892B88BB34
:1001A000089581E090E002C0880F991F6A95E2F7F8
:1001B00095B3892B85BB089581E090E002C0880F3C
:1001C000991F6A95E2F792B3892B82BB089541117A
:1001D00037C0813091F028F08230D9F0833029F196
:1001E000089581E090E002C0880F991F6A95E2F7B8
:1001F00080959BB389238BBB089581E090E002C07A
:10020000880F991F6A95E2F7809598B3892388BB78
:10021000089581E090E002C0880F991F6A95E2F787
:10022000809595B3892385BB089581E090E002C055
:10023000880F991F6A95E2F7809592B3892382BB54
:060240000895F894FFCFC1
:00000001FF
