S00E00004932435F76312E7372656352
S11300000C942A000C9434000C9434000C943400A6
S11300100C9434000C9434000C9434000C9434008C
S11300200C9434000C9434000C9434000C9434007C
S11300300C9434000C9434000C9434000C9434006C
S11300400C9434000C9434000C9434000C9434005C
S11300500C94340011241FBECFE5D8E0DEBFCDBF21
S11300600E9436000C948F000C9400000E94430000
S11300700E94520081E00E94630081E40E947900A2
S11300800E948800FFCF81B18D7F81B981B18E7FBD
S113009081B982E380B986B7806486BF86B78460FD
S11300A086BF089586B7806286BF86B7806886BF9C
S11300B006B607FEFDCF81B1887F883011F480E059
S11300C0089581E00895880F83B983B18E7F83B941
S11300D086B78F7D86BF86B7806886BF06B607FE63
S11300E0FDCF81B1887F883111F480E0089583E0E9
S11300F0089583B986B7806886BF06B607FEFDCF2C
S113010081B1887F883211F480E0089585E00895F4
S113011086B7806186BF86B7806886BF0895F894E5
S1050120FFCF0B
S9030000FC
