S0110000454550524F4D5F76312E7372656345
S11300000C942A000C943F000C943F000C943F0085
S11300100C943F000C943F000C943F000C943F0060
S11300200C943F000C943F000C943F000C943F0050
S11300300C943F000C943F000C943F000C943F0040
S11300400C943F000C943F000C943F000C943F0030
S11300500C943F0011241FBECFE5D8E0DEBFCDBF16
S113006010E0A0E6B0E0E4ECF4E002C005900D92EC
S1130070A63CB107D9F70E9441000C9460020C948D
S11300800000CF93DF93CDB7DEB7E3970FB6F894B4
S1130090DEBF0FBECDBF6FEF80E00E94260140E0BF
S11300A060E083E00E94B60041E061E083E00E94EA
S11300B0B6000E9481010E94080280E690E00E943E
S11300C01A02CE0101960E942D0268E770E0CE016B
S11300D001960E945702892B09F58EE790E00E9451
S11300E01A02CE0101960E942D02CE0101960E94B1
S11300F04E02182F0E9412028FE890E00E941A020A
S11301000E941602082F82EA90E00E941A02612FD0
S113011070E080E090E0402F0E94460167EA70E0C2
S1130120CE0101960E945702892B39F68CEA90E0A1
S11301300E941A02CE0101960E942D02CE01019660
S11301400E944E02E3EDF0E33197F1F700C00000A6
S1130150682F70E080E090E0AE014D5C5F4F0E943C
S113016060016BA980E00E943601A7CF4130A1F560
S1130170813089F028F08230C9F0833011F108957C
S113018081E090E002C0880F991F6A95E2F79AB364
S1130190892B8ABB089581E090E002C0880F991FE3
S11301A06A95E2F797B3892B87BB089581E090E0C5
S11301B002C0880F991F6A95E2F794B3892B84BB18
S11301C0089581E090E002C0880F991F6A95E2F7D4
S11301D091B3892B81BB0895411137C0813091F0CF
S11301E028F08230D9F0833029F1089581E090E03D
S11301F002C0880F991F6A95E2F780959AB3892304
S11302008ABB089581E090E002C0880F991F6A9527
S1130210E2F7809597B3892387BB089581E090E046
S113022002C0880F991F6A95E2F7809594B38923D9
S113023084BB089581E090E002C0880F991F6A95FD
S1130240E2F7809591B3892381BB0895813041F011
S113025028F0823039F0833039F008956ABB08956C
S113026067BB089564BB089561BB0895813041F074
S113027028F0823039F0833039F008956BBB08954B
S113028068BB089565BB089562BB08951F93CF931F
S1130290DF93162FC72FD42F0E9490018C2F8370C9
S11302A080650E94B201812F0E94DE018D2F0E9481
S11302B0DE010E94010280E0DF91CF911F91089539
S11302C00F931F93CF93DF93D62FC72F8A010E94DA
S11302D09001C370C0658C2F0E94B2018D2F0E94C3
S11302E0DE010E94A1018C2F0E94C801C8010E9456
S11302F0ED010E94010280E0DF91CF911F910F91E7
S1130300089581B18D7F81B981B18E7F81B982E0F9
S113031080B986B7806486BF86B7846086BF089537
S113032086B7806286BF86B7806886BF06B607FE3A
S1130330FDCF81B1887F883011F480E0089581E099
S1130340089586B7806286BF86B7806886BF06B682
S113035007FEFDCF81B1887F803111F480E00895DC
S113036082E00895880F83B983B18E7F83B986B7FD
S11303708F7D86BF86B7806886BF06B607FEFDCF31
S113038081B1887F883111F480E0089583E0089575
S1130390880F83B983B1816083B986B78F7D86BFA7
S11303A086B7806886BF06B607FEFDCF81B1887F19
S11303B0803411F480E0089584E0089583B986B709
S11303C0806886BF06B607FEFDCF81B1887F88327C
S11303D011F480E0089585E00895FC0196B79F7BB1
S11303E096BF96B7906896BF06B607FEFDCF91B14B
S11303F0987F983521F483B1808380E0089586E066
S1130400089586B7806186BF86B7806886BF0895E1
S113041082E08BB988E18AB986E880BD10BC8CE0A3
S113042089B908955D9BFECF8CB908955F9BFECF7B
S11304308CB108950F931F93CF938C01C0E003C038
S11304400E941202CF5FF801EC0FF11D808181112F
S1130450F7CFCF911F910F910895EF92FF920F93D1
S11304601F93CF938C010E941602F8018083C0E091
S113047008C0CF5F7801EC0EF11C0E941602F70150
S11304808083F801EC0FF11D80818D3091F710828B
S1130490CF911F910F91FF90EF900895FC0122815D
S11304A08381F0E12F9F800D112480530895FB0177
S11304B0DC018D91019080190110D9F3990B0895F5
S10704C0F894FFCFDA
S11304C4456E74657220796F7572204F7065726120
S11304D474696F6E3A200D00575249544500456EB5
S11304E474657220416464726573733A200D000D5F
S11304F44F4B200D456E74657220446174613A203B
S11305040D000D4F4B0D005245414400456E74657A
S113051472204164647265737320546F2052656160
S1090524643A200D000002
S9030000FC
