S0120000546865726D6F737461742E73726563E7
S11300000C942A000C943F000C943F000C943F0085
S11300100C943F000C943F000C943F000C943F0060
S11300200C943F000C943F000C943F000C943F0050
S11300300C943F000C943F000C943F000C943F0040
S11300400C943F000C943F000C943F000C943F0030
S11300500C943F0011241FBECFE5D8E0DEBFCDBF16
S113006010E0A0E6B0E0ECEEF9E002C005900D92DD
S1130070AA38B107D9F70E94D6010C94F4040C9461
S113008000006FE081E00E9459036FEF81E00E945D
S113009069030895EF92FF920F931F93CF93DF9319
S11300A0D0E03DC0ED2EF12CF701E059FF4F40E0C8
S11300B0608181E00E94E902C0E026C00C2F10E0BC
S11300C0F801EC58FF4F608181E00E9479038111AF
S11300D01AC0F801EC58FF4F608181E00E94790357
S11300E08823B9F383EC99E00197F1F700C000008D
S11300F0000F111F000F111F005A1F4FF801EE0DC2
S1130100FF1D80810FC0CF5FC430C0F2F701E059FA
S1130110FF4F41E0608181E00E94E902DF5FD4305B
S113012008F28FEFDF91CF911F910F91FF90EF9025
S11301300895CF93C82F41E062E083E00E94E90272
S113014040E061E083E00E94E9026C2F82E00E94BB
S1130150690341E060E083E00E94E90289EF90E0F6
S11301600197F1F700C0000040E060E083E00E94E6
S1130170E90289EF90E00197F1F700C00000CF9108
S11301800895CF93C82F40E062E083E00E94E90223
S113019040E061E083E00E94E9026C2F82E00E946B
S11301A0690341E060E083E00E94E90289EF90E0A6
S11301B00197F1F700C0000040E060E083E00E9496
S11301C0E90289EF90E00197F1F700C00000CF91B8
S11301D008956FEF82E00E9459036FEF83E00E945D
S11301E0590383ED90E30197F1F700C0000088E321
S11301F00E94C10089EF90E00197F1F700C0000070
S11302008CE00E94C10089EF90E00197F1F700C0F3
S1130210000081E00E94C10083EF91E00197F1F7B3
S113022000C000000895CF93DF93EC0103C00E9447
S11302309900219688818111FACFDF91CF91089599
S1130240811105C080E8860F0E94C10008958130A5
S113025021F480EC860F0E94C10008950F931F9330
S1130260CF93DF938C010097F1F49C01ADECBCECCF
S11302700E94E5049695879596958795969587951A
S11302809C01220F331F880F991F880F991F880F15
S1130290991F820F931F9801281B390BC901805D98
S11302A00E9499003FC0992334F4119501951109D6
S11302B08DE20E949900C0E1D7E232C0802F912FD5
S11302C00C171D0708F1BE010E94D104AB019B016C
S11302D0ADECBCEC0E94E5049695879596958795C0
S11302E0969587959C01220F331F880F991F880FBD
S11302F0991F880F991F820F931F9A01281B390B8E
S1130300C901805D0E9499009E01ADECBCEC0E9485
S1130310E504EC01D695C795D695C795D695C795AE
S1130320209761F6DF91CF911F910F91089540E0DE
S113033060E080E00E9479020E94550208950F93C4
S11303401F93CF93DF9300D0CDB7DEB78C0180E04D
S113035090E00E944C02CE0101960E946B026981DA
S11303607A8180E090E00E94D60320E030E040E80B
S11303705EE30E943C040E94A703F801718360833A
S11303800F900F90DF91CF911F910F910895FC0171
S1130390208130E0205331099181220F822F880F70
S11303A0880F280F822F890F80530895CF93DF93EE
S11303B0CDB7DEB72E970FB6F894DEBF0FBECDBF14
S11303C019821A821B821C820E9497010E94E900F2
S11303D00E94410088E790E00E94130160E081E000
S11303E00E94200182E890E00E94130141E062E053
S11303F080E00E94790210E00E944A00082F8F3F9B
S113040081F0E5E0F0E0EC0FFD1FE10FF11D8083CA
S113041069E0610F80E00E942001802F0E94990012
S11304201F5F0D3349F7C12CD12C7601CE010596FF
S11304300E94C701182FCE0101960E949F0160E01F
S113044080E00E94200189819A81AB81BC81C81619
S1130450D906EA06FB0651F381E00E94C1008981B6
S11304609A810E942E01C980DA80EB80FC80812F62
S113047090E0A0E0B0E08C159D05AE05BF0530F41A
S113048040E062E080E00E94E902D0CF41E062E017
S113049080E00E94E902CACF97B1907E97B980327A
S11304A018F497B1892B87B9089587B1806487B907
S11304B087B1806887B987B18F7D87B986B18E7F10
S11304C086B986B1826086B986B1846086B986B100
S11304D0806886B90895FC0196B1906496B9349BFE
S11304E0FECF96B1906196B984B195B19183808322
S11304F008954130A1F5813089F028F08230C9F0A7
S1130500833011F1089581E090E002C0880F991FB3
S11305106A95E2F79AB3892B8ABB089581E090E04B
S113052002C0880F991F6A95E2F797B3892B87BB9E
S1130530089581E090E002C0880F991F6A95E2F760
S113054094B3892B84BB089581E090E002C0880FA6
S1130550991F6A95E2F791B3892B81BB08954111E4
S113056037C0813091F028F08230D9F0833029F1FE
S1130570089581E090E002C0880F991F6A95E2F720
S113058080959AB389238ABB089581E090E002C0E4
S1130590880F991F6A95E2F7809597B3892387BBE3
S11305A0089581E090E002C0880F991F6A95E2F7F0
S11305B0809594B3892384BB089581E090E002C0C0
S11305C0880F991F6A95E2F7809591B3892381BBBF
S11305D008954130A1F5813089F028F08230C9F0C6
S11305E0833011F1089581E090E002C0880F991FD3
S11305F06A95E2F79BB3892B8BBB089581E090E069
S113060002C0880F991F6A95E2F798B3892B88BBBB
S1130610089581E090E002C0880F991F6A95E2F77F
S113062095B3892B85BB089581E090E002C0880FC3
S1130630991F6A95E2F792B3892B82BB0895411101
S113064037C0813091F028F08230D9F0833029F11D
S1130650089581E090E002C0880F991F6A95E2F73F
S113066080959BB389238BBB089581E090E002C001
S1130670880F991F6A95E2F7809598B3892388BB00
S1130680089581E090E002C0880F991F6A95E2F70F
S1130690809595B3892385BB089581E090E002C0DD
S11306A0880F991F6A95E2F7809592B3892382BBDC
S11306B00895813041F028F0823039F0833039F0E8
S11306C008956ABB089567BB089564BB089561BB30
S11306D00895813041F028F0823039F0833039F0C8
S11306E008956BBB089568BB089565BB089562BB0C
S11306F00895813079F028F08230A9F08330E1F058
S113070024C089B390E002C0959587956A95E2F775
S11307108170089586B390E002C0959587956A9597
S1130720E2F78170089583B390E002C095958795B0
S11307306A95E2F78170089580B390E002C09595C0
S113074087956A95E2F78170089584E108950E947F
S11307501B0488F09F5798F0B92F9927B751B0F030
S1130760E1F0660F771F881F991F1AF0BA95C9F731
S113077014C0B13091F00E943504B1E008950C9496
S11307803504672F782F8827B85F39F0B93FCCF349
S1130790869577956795B395D9F73EF490958095AE
S11307A0709561957F4F8F4F9F4F0895E89409C0CE
S11307B097FB3EF490958095709561957F4F8F4F90
S11307C09F4F9923A9F0F92F96E9BB279395F695A6
S11307D0879577956795B795F111F8CFFAF4BB0F24
S11307E011F460FF1BC06F5F7F4F8F4F9F4F16C088
S11307F0882311F096E911C0772321F09EE8872F12
S1130800762F05C0662371F096E8862F70E060E0CD
S11308102AF09A95660F771F881FDAF7880F969546
S1130820879597F9089557FD9058440F551F59F02F
S11308305F3F71F04795880F97FB991F61F09F3FC9
S113084079F087950895121613061406551FF2CFF2
S11308504695F1DF08C0161617061806991FF1CF42
S113086086957105610508940895E894BB27662769
S11308707727CB0197F908950E944F040C94C00484
S11308800E94B20438F00E94B90420F0952311F0BC
S11308900C94A9040C94AF0411240C9436040E9403
S11308A0130470F3959FC1F3950F50E0551F629F99
S11308B0F001729FBB27F00DB11D639FAA27F00DB5
S11308C0B11DAA1F649F6627B00DA11D661F829FDC
S11308D02227B00DA11D621F739FB00DA11D621FC1
S11308E0839FA00D611D221F749F3327A00D611DDE
S11308F0231F849F600D211D822F762F6A2F1124C0
S11309009F5750409AF0F1F088234AF0EE0FFF1FF2
S1130910BB1F661F771F881F91505040A9F79E3F49
S1130920510580F00C94A9040C9436045F3FE4F361
S1130930983ED4F3869577956795B795F795E7959F
S11309409F5FC1F7FE2B880F911D9695879597F9A8
S1130950089597F99F6780E870E060E008959FEF3D
S113096080EC089500240A94161617061806090642
S1130970089500240A941216130614060506089511
S1130980092E0394000C11F4882352F0BB0F40F499
S1130990BF2B11F460FF04C06F5F7F4F8F4F9F4FD9
S11309A00895AA1BBB1B51E107C0AA1FBB1FA617B2
S11309B0B70710F0A61BB70B881F991F5A95A9F704
S11309C080959095BC01CD010895A29FB001B39F7D
S11309D0C001A39F700D811D1124911DB29F700D44
S10F09E0811D1124911D0895F894FFCF8F
S11309EC3738392F3435362A3132332D63303D2B99
S11309FC00010203040506075365742054656D70E9
S10D0A0C3A005072657373203D0038
S9030000FC
