S010000055534152545F76312E737265637F
S11300000C942A000C9434000C9434000C943400A6
S11300100C9434000C9434000C9434000C9434008C
S11300200C9434000C9434000C9434000C9434007C
S11300300C9434000C9434000C9434000C9434006C
S11300400C9434000C9434000C9434000C9434005C
S11300500C94340011241FBECFE5D8E0DEBFCDBF21
S11300600E9436000C9491000C940000CF93DF930F
S1130070CDB7DEB764970FB6F894DEBF0FBECDBF21
S11300800E944B00CE0101960E947000CE010196A1
S11300900E945D00F7CF82E08BB988E18AB986E8D7
S11300A080BD10BC8CE089B908955D9BFECF8CB9EE
S11300B008955F9BFECF8CB108950F931F93CF9348
S11300C08C01C0E003C00E945500CF5FF801EC0F23
S11300D0F11D80818111F7CFCF911F910F91089568
S11300E0EF92FF920F931F93CF938C010E945900BC
S11300F0F8018083C0E008C0CF5F7801EC0EF11CEA
S11301000E945900F7018083F801EC0FF11D8081F2
S11301108D3091F71082CF911F910F91FF90EF9046
S10901200895F894FFCFDE
S9030000FC
