S00E00004932435F76312E7372656352
S11300000C942A000C9434000C9434000C943400A6
S11300100C9434000C9434000C9434000C9434008C
S11300200C9434000C9434000C9434000C9434007C
S11300300C9434000C9434000C9434000C9434006C
S11300400C9434000C9434000C9434000C9434005C
S11300500C94340011241FBECFE5D8E0DEBFCDBF21
S11300600E9456000C9488000C940000813041F0EA
S113007028F0823039F0833039F008956ABB08954E
S113008067BB089564BB089561BB0895813041F056
S113009028F0823039F0833039F008956BBB08952D
S11300A068BB089565BB089562BB0895CF93DF9341
S11300B01F92CDB7DEB781E00E946B006FEF81E045
S11300C00E943600CE0101960E947700698181E08A
S11300D00E944600FFCF880F82B986B7806486BF2E
S11300E086B7846086BF06B607FEFDCF0895FC017F
S11300F096B7906896BF06B607FEFDCF91B1987F7C
S1130100903821F483B1808380E0089586E00895D7
S1070110F894FFCF8D
S9030000FC
