:100000000C942A000C943C000C943C000C943C0092
:100010000C943C000C943C000C943C000C943C0070
:100020000C943C000C943C000C943C000C941E017D
:100030000C943C000C943C000C943C000C943C0050
:100040000C943C000C943C000C943C000C943C0040
:100050000C943C0011241FBECFE5D8E0DEBFCDBF1D
:1000600020E0A0E6B0E001C01D92A936B207E1F79A
:100070000E94E6000C9499020C94000041113BC0D0
:10008000813099F028F08230E9F0833041F133C0BB
:1000900021E030E0062E02C0220F331F0A94E2F75F
:1000A00020959AB329232ABB26C021E030E0062EF2
:1000B00002C0220F331F0A94E2F7209597B3292339
:1000C00027BB19C021E030E0062E02C0220F331FEB
:1000D0000A94E2F7209594B3292324BB0CC021E0B5
:1000E00030E0062E02C0220F331F0A94E2F720955B
:1000F00091B3292321BB4130A1F5813089F028F04B
:100100008230C9F0833019F1089581E090E002C097
:10011000880F991F6A95E2F79AB3892B8ABB0895D5
:1001200081E090E002C0880F991F6A95E2F797B3CB
:10013000892B87BB089581E090E002C0880F991F4A
:100140006A95E2F7809594B3892384BB089581E092
:1001500090E002C0880F991F6A95E2F791B3892B4E
:1001600081BB0895813089F028F08230C9F0833056
:1001700011F1089581E090E002C0880F991F6A95FF
:10018000E2F79BB389278BBB089581E090E002C022
:10019000880F991F6A95E2F798B3892788BB08955D
:1001A00081E090E002C0880F991F6A95E2F795B34D
:1001B000892785BB089581E090E002C0880F991FD0
:1001C0006A95E2F792B3892782BB08950E940C01D9
:1001D00041E060E080E00E943E0060E472E48FE075
:1001E00090E00E94F400F9CFCF93C62F0E949E01A9
:1001F00020E030E040E85BE30E9404020E946F01CF
:100200006093650070936600809367009093680028
:10021000C0936400CF9108958FB780688FBF83B774
:10022000982F977B93BF9091640092BF99B791608C
:1002300099BF867B82608B7F83BF08951F920F9248
:100240000FB60F9211242F933F934F935F936F93A9
:100250007F938F939F93AF93BF93EF93FF9380917F
:10026000600090916100A0916200B09163000196DE
:10027000A11DB11D8093600090936100A093620066
:10028000B0936300409165005091660060916700F3
:100290007091680084179507A607B70779F48091D5
:1002A000640082BF60E080E00E94B20010926000B3
:1002B000109261001092620010926300FF91EF9122
:1002C000BF91AF919F918F917F916F915F914F916E
:1002D0003F912F910F900FBE0F901F9018950E9485
:1002E000E30188F09F5798F0B92F9927B751B0F0E4
:1002F000E1F0660F771F881F991F1AF0BA95C9F7AA
:1003000014C0B13091F00E94FD01B1E008950C9449
:10031000FD01672F782F8827B85F39F0B93FCCF3FC
:10032000869577956795B395D9F73EF49095809526
:10033000709561957F4F8F4F9F4F0895E89409C046
:1003400097FB3EF490958095709561957F4F8F4F08
:100350009F4F9923A9F0F92F96E9BB279395F6951E
:10036000879577956795B795F111F8CFFAF4BB0F9C
:1003700011F460FF1BC06F5F7F4F8F4F9F4F16C000
:10038000882311F096E911C0772321F09EE8872F8A
:10039000762F05C0662371F096E8862F70E060E046
:1003A0002AF09A95660F771F881FDAF7880F9695BF
:1003B000879597F9089557FD9058440F551F59F0A8
:1003C0005F3F71F04795880F97FB991F61F09F3F42
:1003D00079F087950895121613061406551FF2CF6B
:1003E0004695F1DF08C0161617061806991FF1CFBB
:1003F00086957105610508940895E894BB276627E2
:100400007727CB0197F908950E9417020C94880270
:100410000E947A0238F00E94810220F0952311F0A8
:100420000C9471020C94770211240C94FE010E942A
:10043000DB0170F3959FC1F3950F50E0551F629F4C
:10044000F001729FBB27F00DB11D639FAA27F00D2D
:10045000B11DAA1F649F6627B00DA11D661F829F54
:100460002227B00DA11D621F739FB00DA11D621F39
:10047000839FA00D611D221F749F3327A00D611D56
:10048000231F849F600D211D822F762F6A2F112438
:100490009F5750409AF0F1F088234AF0EE0FFF1F6B
:1004A000BB1F661F771F881F91505040A9F79E3FC2
:1004B000510580F00C9471020C94FE015F3FE4F34F
:1004C000983ED4F3869577956795B795F795E79518
:1004D0009F5FC1F7FE2B880F911D9695879597F921
:1004E000089597F99F6780E870E060E008959FEFB6
:1004F00080EC089500240A941616170618060906BB
:10050000089500240A941216130614060506089589
:10051000092E0394000C11F4882352F0BB0F40F411
:10052000BF2B11F460FF04C06F5F7F4F8F4F9F4F51
:060530000895F894FFCFCE
:00000001FF
